:100000000C9454000C9469000C9469000C946900E1
:100010000C9469000C9469000C9469000C946900BC
:100020000C9469000C9469000C9469000C946900AC
:100030000C9469000C9469000C9469000C9469009C
:100040000C9469000C9469000C9469000C9469008C
:100050000C9469000C9469000C9469000C9469007C
:100060000C9469000C946900001F000000001F0040
:10007000001F101010101F00001F181818181F0064
:10008000001F1C1C1C1C1F00001F1E1E1E1E1F000C
:10009000001F1F1F1F1F1F0003070F1F0F07030055
:1000A000181C1E1F1E1C180011241FBECFEFD8E005
:1000B000DEBFCDBF11E0A0E0B1E0E8E8F7E002C0AC
:1000C00005900D92A030B107D9F70E945D030C9402
:1000D000C2030C94000087B1816087B988B18E7F1C
:1000E00088B92FEF89EF90E0215080409040E1F7F0
:1000F00000C0000088B1816088B920EA2A95F1F734
:1001000087B18E7F87B98FE792E00197F1F700C042
:1001100000000895EF92FF920F931F93CF93DF9308
:100120008C0187B1886087B90E946B0070E002C0C3
:1001300076B171707130E1F7872FF0E030E0E0E0E8
:1001400060E035C0A7ECB0E01197F1F700C0000007
:1001500096B190FBEE24E0F8F12C47E050E0431B11
:100160005109D70102C0AA0FBB1F4A95E2F7EA2B3B
:100170003F5F383039F4D801AF0FB11DEC93FF5F0A
:1001800030E0E0E0272F04C096B1282F892F81703E
:100190008130D1F72111F8CF98B1986098B9B5E0C6
:1001A000BA95F1F7000098B1977F98B96F5F603208
:1001B00048F260E030E021C0E7ECF0E03197F1F781
:1001C00000C0000096B19170C92FF0E0DF2F47E02A
:1001D00050E0431B5109DE0102C0AA0FBB1F4A9524
:1001E000E2F76A2B272F04C096B1282F892F817040
:1001F0008130D1F72111F8CF3F5F3830E8F2F801B4
:100200003081218192818381230F920F980F81E0A9
:10021000691380E0DF91CF911F910F91FF90EF90D4
:10022000089565B1982F9074492F50E055954795E2
:10023000559547955595479555954795982F90789D
:10024000292F30E0022E232F000C221F330B000C2D
:10025000221F331F962F997F492B242B25B968B174
:10026000982F9071492F50E0559547955595479592
:1002700055954795982F9072292F30E03595279501
:100280003595279535952795962F997F492B242BC2
:1002900028B99BB192609BB99BB191609BB925ED48
:1002A0002A95F1F700009BB19E7F9BB99BB19D7F82
:1002B0009BB995ED9A95F1F7000065B120E1829F19
:1002C000C0011124AC0140745527559547955595AB
:1002D000479555954795559547959C012078332727
:1002E000022E232F000C221F330B000C221F331F62
:1002F000362F397F432B242B25B948B19C0120711F
:10030000332735952795359527953595279580720F
:100310009927959587959595879595958795942F88
:10032000997F292B822B88B98BB182608BB98BB1D5
:1003300081608BB985ED8A95F1F700008BB18E7FD6
:100340008BB98BB18D7F8BB995ED9A95F1F7000044
:10035000089565B1982F9074492F50E055954795B1
:10036000559547955595479555954795982F90786C
:10037000292F30E0022E232F000C221F330B000CFC
:10038000221F331F962F997F492B242B25B968B143
:10039000982F9071492F50E0559547955595479561
:1003A00055954795982F9072292F30E035952795D0
:1003B0003595279535952795962F997F492B242B91
:1003C00028B99BB191609BB9EFE9FFE03197F1F754
:1003D00000C000009BB19E7F9BB9EFE9FFE0319721
:1003E000F1F700C0000065B1F0E18F9FC00111245A
:1003F000AC014074552755954795559547955595AA
:100400004795559547959C0120783327022E232F39
:10041000000C221F330B000C221F331F362F397F95
:10042000432B242B25B948B19C01207133273595E6
:100430002795359527953595279580729927959518
:1004400087959595879595958795942F997F292BD5
:10045000822B88B98BB181608BB98FE99FE00197BE
:10046000F1F700C000008BB18E7F8BB9EFE9FFE0A0
:100470003197F1F700C00000089581E00E94A901C2
:10048000089582E00E94A9010895623031F063303E
:1004900031F0613029F4805C03C08C5E01C08C5A5D
:1004A00080680E94A9010895EF92FF920F931F9315
:1004B000CF93DF937C01862F90E0880F991F880FE0
:1004C000991F880F991F8064C0E0D0E00DC0F7012C
:1004D000EC0FFD1F149101E0080F0E94A901812F6C
:1004E0000E9411012196802FC830D10580F3DF9141
:1004F000CF911F910F91FF90EF900895CF93DF93CD
:100500008FE59AEE0197F1F700C0000085B1897F71
:1005100085B988B1897F88B91BB887B1866087B9EA
:1005200084B1866084B984B1866084B987B18660FD
:1005300087B98AB183608AB985B1897F85B988B165
:10054000866088B98BB181608BB98FE99FE0019794
:10055000F1F700C000008BB18E7F8BB98FE99FE06F
:100560000197F1F700C0000085B1897F85B988B196
:10057000866088B98BB181608BB98FE99FE0019764
:10058000F1F700C000008BB18E7F8BB98FE99FE03F
:100590000197F1F700C0000085B1897F85B988B166
:1005A000897F846088B98BB181608BB98FE99FE0C6
:1005B0000197F1F700C000008BB18E7F8BB98FE9F6
:1005C0009FE00197F1F700C0000088E20E94A901B6
:1005D0008CE00E94A90160E0C0E00AC0D1E0D60F23
:1005E0008C2F90E088599F4F0E945402C85F6D2F56
:1005F000C034A0F3DF91CF910895EF92FF920F9353
:100600001F93CF93DF9300D000D01F92CDB7DEB7FA
:100610007B01FE01319625E0DF011D922A95E9F765
:1006200024E030E00FC06AE070E00E949A03E1E04D
:10063000F0E0EC0FFD1FE20FF31F8083862F972F52
:1006400021503109009779F7BFEFEB16FB0681F4D3
:1006500003C00F5F1F4F02C000E010E0E1E0F0E0D8
:10066000EC0FFD1FE00FF11F2081222391F304C046
:1006700005E010E00E191F09992384F48DE20E9411
:1006800011010CC0E1E0F0E0EC0FFD1FE00FF11FE5
:100690008081805D0E9411010F5F1F4F05301105A1
:1006A0008CF30F900F900F900F900F90DF91CF91E0
:1006B0001F910F91FF90EF900895CF93DF9300D09B
:1006C00000D0CDB7DEB70E947E022FEF81EE94E01E
:1006D000215080409040E1F700C000000E9441029C
:1006E00019821A821B821C82CE0101960E948A0006
:1006F0008823B1F00E943D0260E080E00E94450244
:10070000898162E070E090E00E94FD0261E080E09B
:100710000E9445028B8162E070E090E00E94FD0241
:100720002FEF87EA91E6215080409040E1F700C02A
:100730000000DACF97FB072E16F4009407D077FD60
:1007400009D00E94AE0307FC05D03EF49095819538
:100750009F4F0895709561957F4F0895AA1BBB1B0D
:1007600051E107C0AA1FBB1FA617B70710F0A61BB1
:10077000B70B881F991F5A95A9F780959095BC01D2
:08078000CD010895F894FFCFAC
:00000001FF
