S00B00005450332E7372656342
S11300000C9454000C9469000C9469000C946900DD
S11300100C9469000C9469000C9469000C946900B8
S11300200C9469000C9469000C9469000C946900A8
S11300300C9469000C9469000C9469000C94690098
S11300400C9469000C9469000C9469000C94690088
S11300500C9469000C9469000C9469000C94690078
S11300600C9469000C946900001F000000001F003C
S1130070001F101010101F00001F181818181F0060
S1130080001F1C1C1C1C1F00001F1E1E1E1E1F0008
S1130090001F1F1F1F1F1F0003070F1F0F07030051
S11300A0181C1E1F1E1C180011241FBECFEFD8E001
S11300B0DEBFCDBF11E0A0E0B1E0E0E9F7E002C0AF
S11300C005900D92A030B107D9F70E9479030C94E2
S11300D0C6030C94000087B1816087B988B18E7F14
S11300E088B92FEF89EF90E0215080409040E1F7EC
S11300F000C0000088B1816088B920EA2A95F1F730
S113010087B18E7F87B98FE792E00197F1F700C03E
S113011000000895EF92FF920F931F93CF93DF9304
S11301207C0187B1826087B90E946B0087EC90E004
S11301300197F1F700C0000088B1826088B995E0AA
S11301409A95F1F7000088B18D7F88B960E080E06E
S113015050E090E03EC0E7ECF0E03197F1F700C0EA
S1130160000026B12170C22FF0E0DF2F9E01082E7F
S113017002C0220F331F0A94E2F7522B28B12260E7
S113018028B925E02A95F1F7000028B12D7F28B978
S11301908F5F883039F4F701E60FF11D50836F5FEC
S11301A080E050E0252F30E0492F477002C035959C
S11301B027954A95E2F720FF07C0E3E1F1E0319784
S11301C0F1F700C0000004C0F5E6FA95F1F700006D
S11301D09F5F903208F4BFCFC0E080E028C0E7EC16
S11301E0F0E03197F1F700C0000096B1092F0170DB
S11301F010E0982F97709801092E02C0220F331F28
S11302000A94E2F7C22B2C2F30E002C035952795D3
S11302109A95E2F720FF07C0E7E1F1E03197F1F7A3
S113022000C0000003C0F0EAFA95F1F78F5F883050
S1130230B0F2F701D081218192818381D20FD90F4D
S1130240D80F0E9468020E946C02F701828163E069
S113025070E090E00E94190363E070E08C2F90E05E
S11302600E94190381E0CD1380E0DF91CF911F91AB
S11302700F91FF90EF90089565B1982F9074492FD6
S113028050E05595479555954795559547955595FE
S11302904795982F9078292F30E0022E232F000CB9
S11302A0221F330B000C221F331F962F997F492BDB
S11302B0242B25B968B1982F9071492F50E055959A
S11302C047955595479555954795982F9072292FA1
S11302D030E0359527953595279535952795962FB3
S11302E0997F492B242B28B99BB192609BB99BB170
S11302F091609BB925ED2A95F1F700009BB19E7F93
S11303009BB99BB19D7F9BB995ED9A95F1F7000040
S113031065B120E1829FC0011124AC0140745527CE
S113032055954795559547955595479555954795B1
S11303309C0120783327022E232F000C221F330B1D
S1130340000C221F331F362F397F432B242B25B952
S113035048B19C012071332735952795359527950C
S113036035952795807299279595879595958795C5
S113037095958795942F997F292B822B88B98BB1DA
S113038082608BB98BB181608BB985ED8A95F1F769
S113039000008BB18E7F8BB98BB18D7F8BB995EDBE
S11303A09A95F1F70000089565B1982F9074492F3C
S11303B050E05595479555954795559547955595CD
S11303C04795982F9078292F30E0022E232F000C88
S11303D0221F330B000C221F331F962F997F492BAA
S11303E0242B25B968B1982F9071492F50E0559569
S11303F047955595479555954795982F9072292F70
S113040030E0359527953595279535952795962F81
S1130410997F492B242B28B99BB191609BB9EFE9B3
S1130420FFE03197F1F700C000009BB19E7F9BB9BC
S1130430EFE9FFE03197F1F700C0000065B1F0E1AA
S11304408F9FC0011124AC014074552755954795E1
S11304505595479555954795559547959C01207811
S11304603327022E232F000C221F330B000C221FD4
S1130470331F362F397F432B242B25B948B19C01D8
S113048020713327359527953595279535952795EB
S113049080729927959587959595879595958795D4
S11304A0942F997F292B822B88B98BB181608BB9CA
S11304B08FE99FE00197F1F700C000008BB18E7FB8
S11304C08BB9EFE9FFE03197F1F700C00000089520
S11304D081E00E94D401089582E00E94D40108952D
S11304E0EF92FF920F931F93CF93DF937C01862F9C
S11304F090E0880F991F880F991F880F991F8064B7
S1130500C0E0D0E00DC0F701EC0FFD1F149101E035
S1130510080F0E94D401812F0E943C012196802F54
S1130520C830D10580F3DF91CF911F910F91FF90D7
S1130530EF900895CF93DF938FE59AEE0197F1F74B
S113054000C0000085B1897F85B988B1897F88B9E9
S11305501BB887B1866087B984B1866084B984B1D9
S1130560866084B987B1866087B98AB183608AB9A5
S113057085B1897F85B988B1866088B98BB181607E
S11305808BB98FE99FE00197F1F700C000008BB1B0
S11305908E7F8BB98FE99FE00197F1F700C00000CF
S11305A085B1897F85B988B1866088B98BB181604E
S11305B08BB98FE99FE00197F1F700C000008BB180
S11305C08E7F8BB98FE99FE00197F1F700C000009F
S11305D085B1897F85B988B1897F846088B98BB1F9
S11305E081608BB98FE99FE00197F1F700C00000AB
S11305F08BB18E7F8BB98FE99FE00197F1F700C033
S1130600000088E20E94D4018CE00E94D40160E0E2
S1130610C0E00AC0D1E0D60F8C2F90E088599F4FDC
S11306200E947002C85F6D2FC034A0F3DF91CF9198
S11306300895EF92FF920F931F93CF93DF9300D00F
S113064000D01F92CDB7DEB77B01FE01319625E0C5
S1130650DF011D922A95E9F724E030E00FC06AE03B
S113066070E00E949E03E1E0F0E0EC0FFD1FE20F5A
S1130670F31F8083862F972F21503109009779F734
S1130680BFEFEB16FB0681F403C00F5F1F4F02C0E0
S113069000E010E0E1E0F0E0EC0FFD1FE00FF11FDF
S11306A02081222391F304C005E010E00E191F09F4
S11306B0992384F48DE20E943C010CC0E1E0F0E057
S11306C0EC0FFD1FE00FF11F8081805D0E943C0153
S11306D00F5F1F4F053011058CF30F900F900F9093
S11306E00F900F90DF91CF911F910F91FF90EF909A
S11306F00895CF93DF9300D000D0CDB7DEB70E942A
S11307009A022FEF81EE94E0215080409040E1F76F
S113071000C000000E946C0219821A821B821C8293
S1130720CE0101960E948A002FEF87EA91E62150BC
S113073080409040E1F700C00000F2CF97FB072E05
S113074016F4009407D077FD09D00E94B20307FC89
S113075005D03EF4909581959F4F089570956195CD
S11307607F4F0895AA1BBB1B51E107C0AA1FBB1FE3
S1130770A617B70710F0A61BB70B881F991F5A9529
S1130780A9F780959095BC01CD010895F894FFCF09
S9030000FC
