:100000000C9454000C9469000C9469000C946900E1
:100010000C9469000C9469000C9469000C946900BC
:100020000C9469000C9469000C9469000C946900AC
:100030000C9469000C9469000C9469000C9469009C
:100040000C9469000C9469000C9469000C9469008C
:100050000C9469000C9469000C9469000C9469007C
:100060000C9469000C946900001F000000001F0040
:10007000001F101010101F00001F181818181F0064
:10008000001F1C1C1C1C1F00001F1E1E1E1E1F000C
:10009000001F1F1F1F1F1F0003070F1F0F07030055
:1000A000181C1E1F1E1C180011241FBECFEFD8E005
:1000B000DEBFCDBF11E0A0E0B1E0E6E8F7E002C0AE
:1000C00005900D92A030B107D9F70E945C030C9403
:1000D000C1030C94000087B1816087B988B18E7F1D
:1000E00088B92FEF89EF90E0215080409040E1F7F0
:1000F00000C0000088B1816088B920EA2A95F1F734
:1001000087B18E7F87B98FE792E00197F1F700C042
:1001100000000895EF92FF920F931F93CF93DF9308
:100120007C0187B1886087B90E946B0080E002C0C3
:1001300086B181708130E1F720E0E0E030E070E0EE
:1001400060E035C0A7ECB0E01197F1F700C0000007
:1001500098B1986098B9B5E0BA95F1F7000098B1F8
:10016000977F98B996B19170C92FF0E0DF2F47E0E3
:1001700050E0431B5109DE0102C0AA0FBB1F4A9584
:10018000E2F77A2B3F5F383061F4D701AE0FB11D33
:100190007C93EF5F30E070E004C096B1282F892F88
:1001A00081708130D1F72111F8CF6F5F282F603235
:1001B00048F260E030E020C0E7ECF0E03197F1F782
:1001C00000C0000096B1092F017010E047E050E038
:1001D000431B5109D80102C0AA0FBB1F4A95E2F781
:1001E0006A2B04C096B1282F892F81708130D1F7F6
:1001F0002111F8CF3F5F282F3830F0F2F70130811E
:10020000218192818381230F920F980F81E06913DE
:1002100080E0DF91CF911F910F91FF90EF900895B3
:1002200065B1982F9074492F50E055954795559595
:1002300047955595479555954795982F9078292F2F
:1002400030E0022E232F000C221F330B000C221F44
:10025000331F962F997F492B242B25B968B1982FEE
:100260009071492F50E0559547955595479555956F
:100270004795982F9072292F30E035952795359521
:10028000279535952795962F997F492B242B28B9AB
:100290009BB192609BB99BB191609BB925ED2A956A
:1002A000F1F700009BB19E7F9BB99BB19D7F9BB9ED
:1002B00095ED9A95F1F7000065B120E1829FC001AC
:1002C0001124AC0140745527559547955595479590
:1002D00055954795559547959C0120783327022ED3
:1002E000232F000C221F330B000C221F331F362F2D
:1002F000397F432B242B25B948B19C01207133272A
:1003000035952795359527953595279580729927A9
:10031000959587959595879595958795942F997F30
:10032000292B822B88B98BB182608BB98BB181600C
:100330008BB985ED8A95F1F700008BB18E7F8BB973
:100340008BB18D7F8BB995ED9A95F1F700000895EB
:1003500065B1982F9074492F50E055954795559564
:1003600047955595479555954795982F9078292FFE
:1003700030E0022E232F000C221F330B000C221F13
:10038000331F962F997F492B242B25B968B1982FBD
:100390009071492F50E0559547955595479555953E
:1003A0004795982F9072292F30E0359527953595F0
:1003B000279535952795962F997F492B242B28B97A
:1003C0009BB191609BB9EFE9FFE03197F1F700C075
:1003D00000009BB19E7F9BB9EFE9FFE03197F1F7F9
:1003E00000C0000065B1F0E18F9FC0011124AC0195
:1003F000407455275595479555954795559547957B
:10040000559547959C0120783327022E232F000C09
:10041000221F330B000C221F331F362F397F432B33
:10042000242B25B948B19C01207133273595279598
:1004300035952795359527958072992795958795B8
:100440009595879595958795942F997F292B822B44
:1004500088B98BB181608BB98FE99FE00197F1F783
:1004600000C000008BB18E7F8BB9EFE9FFE03197C0
:10047000F1F700C00000089581E00E94A8010895EE
:1004800082E00E94A8010895623031F0633031F0BB
:10049000613029F4805C03C08C5E01C08C5A806896
:1004A0000E94A8010895EF92FF920F931F93CF939C
:1004B000DF937C01862F90E0880F991F880F991F8A
:1004C000880F991F8064C0E0D0E00DC0F701EC0FE9
:1004D000FD1F149101E0080F0E94A801812F0E94C6
:1004E00010012196802FC830D10580F3DF91CF9184
:1004F0001F910F91FF90EF900895CF93DF938FE5B9
:100500009AEE0197F1F700C0000085B1897F85B9A7
:1005100088B1897F88B91BB887B1866087B984B1F3
:10052000866084B984B1866084B987B1866087B9F2
:100530008AB183608AB985B1897F85B988B18660BF
:1005400088B98BB181608BB98FE99FE00197F1F792
:1005500000C000008BB18E7F8BB98FE99FE00197BF
:10056000F1F700C0000085B1897F85B988B1866048
:1005700088B98BB181608BB98FE99FE00197F1F762
:1005800000C000008BB18E7F8BB98FE99FE001978F
:10059000F1F700C0000085B1897F85B988B1897FF6
:1005A000846088B98BB181608BB98FE99FE0019736
:1005B000F1F700C000008BB18E7F8BB98FE99FE00F
:1005C0000197F1F700C0000088E20E94A8018CE0CA
:1005D0000E94A80160E0C0E00AC0D1E0D60F8C2FD5
:1005E00090E088599F4F0E945302C85F6D2FC0341E
:1005F000A0F3DF91CF910895EF92FF920F931F9395
:10060000CF93DF9300D000D01F92CDB7DEB77B0130
:10061000FE01319625E0DF011D922A95E9F724E0DD
:1006200030E00FC06AE070E00E949903E1E0F0E082
:10063000EC0FFD1FE20FF31F8083862F972F2150B1
:100640003109009779F7BFEFEB16FB0681F403C081
:100650000F5F1F4F02C000E010E0E1E0F0E0EC0FA0
:10066000FD1FE00FF11F2081222391F304C005E05C
:1006700010E00E191F09992384F48DE20E941001E5
:100680000CC0E1E0F0E0EC0FFD1FE00FF11F8081F6
:10069000805D0E9410010F5F1F4F053011058CF324
:1006A0000F900F900F900F900F90DF91CF911F91AF
:1006B0000F91FF90EF900895CF93DF9300D000D07B
:1006C000CDB7DEB70E947D022FEF81EE94E021507E
:1006D00080409040E1F700C000000E944002198273
:1006E0001A821B821C82CE0101960E948A008823F6
:1006F000B1F00E943C0260E080E00E9444028981E7
:1007000062E070E090E00E94FC0261E080E00E9404
:1007100044028B8162E070E090E00E94FC022FEFC7
:1007200087EA91E6215080409040E1F700C0000048
:10073000DACF97FB072E16F4009407D077FD09D087
:100740000E94AD0307FC05D03EF4909581959F4F24
:100750000895709561957F4F0895AA1BBB1B51E1C9
:1007600007C0AA1FBB1FA617B70710F0A61BB70B21
:10077000881F991F5A95A9F780959095BC01CD01C6
:060780000895F894FFCF7C
:00000001FF
